:100000000C945C000C9479000C9479000C947900A9
:100010000C9479000C9479000C9479000C94AB0743
:100020000C9479000C9479000C9479000C9479006C
:100030000C9479000C9479000C9479000C9479005C
:100040000C9479000C9479000C9479000C9479004C
:100050000C9479000C9479000C9479000C9479003C
:100060000C9479000C9479009504BF04FF043F05BB
:1000700022066206A206DF06001F000000001F0025
:10008000001F101010101F00001F181818181F0054
:10009000001F1C1C1C1C1F00001F1E1E1E1E1F00FC
:1000A000001F1F1F1F1F1F0003070F1F0F07030045
:1000B000181C1E1F1E1C180011241FBECFEFD8E0F5
:1000C000DEBFCDBF11E0A0E0B1E0E6EBF0E102C0A1
:1000D00005900D92A031B107D9F721E0A0E1B1E080
:1000E00001C01D92A332B207E1F70E9489030C946C
:1000F00059080C9400008AB18B7F8AB98AB18F7E2F
:100100008AB98AB18F7D8AB98AB1877F8AB98BB162
:1001100084608BB98BB180618BB98BB180628BB9F4
:100120008BB188608BB985B18F7E85B985B1877FAA
:1001300085B985B18E7F85B98BB18F778BB984B145
:100140008F7E84B984B1877F84B984B18E7F84B96E
:100150008AB18F778AB90895E82FF0E0EE0FFF1F7C
:10016000EE0FFF1FE050FF4FE60FF11D8081089555
:10017000813051F028F0823059F0833069F00895D1
:1001800084B1806184B9089584B1886084B9089588
:1001900084B1816084B908958AB180688AB908956C
:1001A000813051F028F0823059F0833069F00895A1
:1001B00084B18F7E84B9089584B1877F84B908950E
:1001C00084B18E7F84B908958AB18F778AB90895F2
:1001D000813051F028F0823059F0833069F010C03E
:1001E0004B9910C081E008954D990EC081E00895AB
:1001F0004C990CC081E008954A990AC081E00895A5
:1002000080E0089580E0089580E0089580E00895FA
:1002100080E008950F931F93CF938C0110921101EA
:1002200029C00E94B8001092100117C00E94E80077
:10023000882371F0C0911101609110018C2F0E94F0
:10024000AC00F80180838C2F0E94D00081E017C0A1
:10025000809110018F5F8093100180911001843094
:1002600028F3809111010E94D000809111018F5FCD
:100270008093110180911101843098F280E0CF9138
:100280001F910F91089565B1982F9074492F50E0F8
:100290005595479555954795559547955595479546
:1002A000982F9078292F30E0022E232F000C221F48
:1002B000330B000C221F331F962F997F492B242BC1
:1002C00025B968B1982F9071492F50E05595479501
:1002D0005595479555954795982F9072292F30E061
:1002E000359527953595279535952795962F997F9F
:1002F000492B242B28B99BB192609BB99BB191608B
:100300009BB925ED2A95F1F700009BB19E7F9BB923
:100310009BB19D7F9BB995ED9A95F1F7000065B172
:1003200020E1829FC0011124AC01407455275595EE
:1003300047955595479555954795559547959C01F2
:1003400020783327022E232F000C221F330B000CA2
:10035000221F331F362F397F432B242B25B948B159
:100360009C0120713327359527953595279535952F
:100370002795807299279595879595958795959559
:100380008795942F997F292B822B88B98BB1826016
:100390008BB98BB181608BB985ED8A95F1F700003F
:1003A0008BB18E7F8BB98BB18D7F8BB98FE891E04C
:1003B0000197F1F700C00000089565B1982F90747F
:1003C000492F50E055954795559547955595479533
:1003D00055954795982F9078292F30E0022E232F9E
:1003E000000C221F330B000C221F331F962F997F06
:1003F000492B242B25B968B1982F9071492F50E0D3
:10040000559547955595479555954795982F9072D1
:10041000292F30E0359527953595279535952795E2
:10042000962F997F492B242B28B99BB191609BB9BA
:10043000EFE9FFE03197F1F700C000009BB19E7F2C
:100440009BB9EFE9FFE03197F1F700C0000065B11B
:10045000F0E18F9FC0011124AC01407455275595E0
:1004600047955595479555954795559547959C01C1
:1004700020783327022E232F000C221F330B000C71
:10048000221F331F362F397F432B242B25B948B128
:100490009C012071332735952795359527953595FE
:1004A0002795807299279595879595958795959528
:1004B0008795942F997F292B822B88B98BB18160E6
:1004C0008BB98FE99FE00197F1F700C000008BB175
:1004D0008E7F8BB9EFE9FFE03197F1F700C00000A4
:1004E0000895623031F0633031F0613029F4805C7E
:1004F00003C08C5E01C08C5A80680E94DD010895A3
:10050000EF92FF920F931F93CF93DF937C01862F7F
:1005100090E0880F991F880F991F880F991F80649A
:10052000C0E0D0E00DC0F701EC0FFD1F149101E019
:10053000080F0E94DD01812F0E9443012196802F28
:10054000C830D10580F3DF91CF911F910F91FF90BB
:10055000EF900895CF93DF938FE59AEE0197F1F72F
:1005600000C0000085B1897F85B988B1897F88B9CD
:100570001BB887B1866087B984B1866084B984B1BD
:10058000866084B987B1866087B98AB183608AB989
:1005900085B1897F85B988B1866088B98BB1816062
:1005A0008BB98FE99FE00197F1F700C000008BB194
:1005B0008E7F8BB98FE99FE00197F1F700C00000B3
:1005C00085B1897F85B988B1866088B98BB1816032
:1005D0008BB98FE99FE00197F1F700C000008BB164
:1005E0008E7F8BB98FE99FE00197F1F700C0000083
:1005F00085B1897F85B988B1897F846088B98BB1DD
:1006000081608BB98FE99FE00197F1F700C000008E
:100610008BB18E7F8BB98FE99FE00197F1F700C016
:10062000000088E20E94DD018CE00E94DD0160E0B4
:10063000C0E00AC0D1E0D60F8C2F90E088589F4FC1
:100640000E948002C85F6D2FC034A0F3DF91CF916C
:100650000895EF92FF920F931F93CF93DF9300D0F3
:1006600000D01F92CDB7DEB77B01FE01319625E0A9
:10067000DF011D922A95E9F724E030E00FC06AE01F
:1006800070E00E942B08E1E0F0E0EC0FFD1FE20FAC
:10069000F31F8083862F972F21503109009779F718
:1006A000BFEFEB16FB0681F403C00F5F1F4F02C0C4
:1006B00000E010E0E1E0F0E0EC0FFD1FE00FF11FC3
:1006C0002081222391F304C005E010E00E191F09D8
:1006D000992384F48DE20E9443010CC0E1E0F0E034
:1006E000EC0FFD1FE00FF11F8081805D0E94430130
:1006F0000F5F1F4F053011058CF30F900F900F9077
:100700000F900F90DF91CF911F910F91FF90EF907D
:1007100008950E94AA020E947B000E9494030E94F6
:1007200012080E948604FDCF10921801089582E2FB
:1007300091E00E940A01882359F02FEF83EC99E0A1
:10074000215080409040E1F700C0000081E0089512
:1007500080E00895CF93DF930E940C07813009F069
:100760004AC00E941D0720931C0130931D01409335
:100770001E0150931F01609320017093210160E0DE
:1007800084E00E947102CCE1D1E08A8162E070E0F5
:1007900090E00E9429038AE30E944301898162E07C
:1007A00070E090E00E9429038AE30E94430188815F
:1007B00062E070E090E00E94290361E084E00E9422
:1007C00071028B8162E070E090E00E9429038FE269
:1007D0000E9443018C8162E070E090E00E94290356
:1007E0008FE20E9443018D8162E070E090E00E9400
:1007F00029030E941207DF91CF9108950F931F9351
:10080000CF93DF9300D000D000D0CDB7DEB74983BF
:100810005A836B837C838D839E83122F0E940F07E4
:100820008130C9F560E084E00E9471028B8162E052
:1008300070E090E00E9429038AE30E9443018A81CC
:1008400062E070E090E00E9429038AE30E94430185
:10085000898162E070E090E00E94290361E084E019
:100860000E9471028C8162E070E090E00E94290396
:100870008FE20E9443018D8162E070E090E00E946F
:1008800029038FE20E9443018E8162E070E090E0D4
:100890000E9429030AC0602F812F0E94710280E20A
:1008A0000E94430180E20E94430126960FB6F8940D
:1008B000DEBF0FBECDBFDF91CF911F910F91089585
:1008C000CF93DF9300D000D000D0CDB7DEB729E2C0
:1008D000929F212D112422952F70892F34E6239F7A
:1008E00080191124811107C0892F90E060E971E01F
:1008F0000E942B0802C0892F837026960FB6F894A9
:10090000DEBF0FBECDBFDF91CF9108950F93CF9380
:10091000E09118018E2F90E08830910508F05FC2B9
:10092000FC01EC5CFF4F0C943F080E94AA030E945C
:100930009703882309F453C280912201813409F07E
:100940004EC2ACE1B1E015968C911597E2E1F1E071
:10095000858314968C911497848313968C911397A6
:10096000838312968C911297828311968C911197A2
:1009700081838C91808381E08093180130C201E0F3
:100980002AE040911201509113016091140170917D
:10099000150180911601909117010E94FE030E949B
:1009A0009703882309F41BC280912201823469F0E5
:1009B00018F4813431F013C2833491F08434E1F0BF
:1009C0000EC282E0809318010AC2E2E1F1E0858163
:1009D0008F5F8583843609F002C210921701FFC130
:1009E000E2E1F1E08581815085838F3F09F0F7C115
:1009F00083E680931701F3C110921801F0C101E062
:100A000027E04091120150911301609114017091FF
:100A1000150180911601909117010E94FE030E941A
:100A20009703882309F4DBC180912201823469F0A5
:100A300018F4813431F0D3C1833499F08434E1F077
:100A4000CEC183E080931801CAC1E2E1F1E0848164
:100A50008F5F84838D3009F0C2C181E080931601DD
:100A6000BEC1E2E1F1E08481815084838111B7C18C
:100A70008CE080931601B3C110921801B0C101E05F
:100A800024E0409112015091130160911401709182
:100A9000150180911601909117010E94FE030E949A
:100AA0009703882309F49BC180912201823479F055
:100AB00018F4813441F093C1833409F466C084345E
:100AC00009F4BDC08CC184E08093180188C1C09135
:100AD0001601C43031F0C63021F0C93011F0CB30EE
:100AE00061F4E2E1F1E083818F5F83838F3109F06C
:100AF00076C181E08093150172C1C230E1F440916A
:100B000012015091130160911401709115018091AF
:100B10001601909117010E946004882361F0E2E1C0
:100B2000F1E083818F5F83838D3109F058C181E0CB
:100B30008093150154C1C230E1F4409112015091EB
:100B4000130160911401709115018091160190912B
:100B500017010E94600481110CC0E2E1F1E0838181
:100B60008F5F83838E3109F03AC181E08093150154
:100B700036C1E2E1F1E083818F5F8383803209F047
:100B80002EC181E0809315012AC1C0911601C430A5
:100B900031F0C63021F0C93011F0CB3059F4E2E128
:100BA000F1E0838181508383811119C18EE18093AB
:100BB000150115C1C230D9F44091120150911301B1
:100BC00060911401709115018091160190911701A7
:100BD0000E946004882359F0E2E1F1E083818150B2
:100BE00083838111FCC08CE180931501F8C0C23071
:100BF000D9F4409112015091130160911401709148
:100C0000150180911601909117010E9460048111D5
:100C10000BC0E2E1F1E08381815083838111DFC069
:100C20008DE180931501DBC0E2E1F1E08381815029
:100C300083838111D4C08FE180931501D0C01092BD
:100C40001801CDC000E024E0409112015091130141
:100C50006091140170911501809116019091170116
:100C60000E94FE030E949703882309F4B8C0809174
:100C70002201823469F018F4813431F0B0C0833439
:100C800091F08434E1F0ABC085E080931801A7C0F7
:100C9000E2E1F1E082818F5F8283883109F09FC0B9
:100CA000109214019CC0E2E1F1E0828181508283C4
:100CB0008F3F09F094C087E18093140190C0109297
:100CC00018018DC000E027E04091120150911301FE
:100CD0006091140170911501809116019091170196
:100CE0000E94FE030E949703882309F478C0809134
:100CF0002201823469F018F4813431F070C08334F9
:100D000091F08434E1F06BC086E08093180167C0F5
:100D1000E2E1F1E081818F5F81838C3309F05FC074
:100D2000109213015CC0E2E1F1E081818150818386
:100D30008F3F09F054C08BE38093130150C0109291
:100D400018014DC000E02AE04091120150911301BA
:100D50006091140170911501809116019091170115
:100D60000E94FE030E9497038823C9F1809122010B
:100D7000823469F018F4813431F031C0833489F061
:100D80008434D1F02CC087E08093180128C0E2E1C0
:100D9000F1E080818F5F80838C3309F5109212011E
:100DA0001EC0E2E1F1E08081815080838F3FB9F481
:100DB0008BE38093120113C01092180110C0409170
:100DC00012015091130160911401709115018091ED
:100DD0001601909117010E94E40710921801CF911B
:100DE0000F9108959091210189E2989F812D1124FE
:100DF00082958F7024E6829F90191124911108C06A
:100E00008091210190E060E971E00E942B08089533
:100E1000809121018370089580911B010895809134
:100E20001A01089580911B01882319F010921B016B
:100E3000089581E080931B010895CF93DF9300D044
:100E400000D000D0CDB7DEB786E0ECE1F1E0DE0106
:100E5000119601900D928A95E1F729813A814B8193
:100E60005C816D817E8180E090E026960FB6F894DB
:100E7000DEBF0FBECDBFDF91CF910895ECE1F1E071
:100E800080818F5F80838C3309F064C01082818100
:100E90008F5F81838C3309F05DC0118282818F5F07
:100EA0008283883109F056C0128283818F5F8383E9
:100EB000803231F484818F5F848381E083833FC0FB
:100EC00080911F018F31C1F480912001843061F045
:100ED00080912001863041F080912001893021F0FD
:100EE000809120018B3059F5ECE1F1E084818F5F36
:100EF000848381E0838323C080911F018E3161F45C
:100F0000809120018230D9F4ECE1F1E084818F5F9F
:100F1000848381E0838313C080911F018D3179F434
:100F200080912001823059F40E94F206882339F022
:100F3000ECE1F1E084818F5F848381E083838091A1
:100F400020018D3039F4ECE1F1E081E0848385818A
:100F50008F5F858308951F920F920FB60F92112411
:100F60002F933F934F935F936F937F938F939F93B1
:100F7000AF93BF93EF93FF93809119018F5F80939D
:100F80001901843649F40E943E0781E080931B01D9
:100F900010921A011092190180911901823319F4EB
:100FA00081E080931A01FF91EF91BF91AF919F91E2
:100FB0008F917F916F915F914F913F912F910F9002
:100FC0000FBE0F901F901895CF93DF9300D000D0E5
:100FD00000D0CDB7DEB749835A836B837C838D8382
:100FE0009E8386E0FE013196ACE1B1E001900D9266
:100FF0008A95E1F726960FB6F894DEBF0FBECDBFF7
:10100000DF91CF910895ECE1F1E083E180838BE300
:1010100081838FE0828380E1838385E0848386E11E
:10102000858308950E940308E0E7F0E080818C7FCB
:1010300080831092B200A0EBB0E08C9182608C9320
:1010400087E08093B1008BE98093B3008081826058
:1010500080837894089597FB072E16F4009407D0A8
:1010600077FD09D00E94450807FC05D03EF4909515
:1010700081959F4F0895709561957F4F0895EE0F6C
:10108000FF1F0590F491E02D0994AA1BBB1B51E1B1
:1010900007C0AA1FBB1FA617B70710F0A61BB70BE8
:1010A000881F991F5A95A9F780959095BC01CD018D
:0610B0000895F894FFCF43
:1010B6003132334134353642373839432A302344C6
:00000001FF
